:04000000ADEF00F070
:100008002982FACF04F0FBCF05F0E9CF06F0EACF5A
:1000180007F0E1CF08F0E2CF09F0D9CF0AF0DACF44
:100028000BF0F3CF0CF0F4CF0DF0F6CF0EF0F7CFC6
:100038000FF0F8CF10F0F5CF11F0F2948B72000E9C
:10004800136E000E126E13BE06D013500FE1040E8D
:10005800125CD8B00BD0250E1224D96E000E1320D6
:10006800DA6E010EDF6E124A132AEDD7F80ECF6E44
:10007800300ECE6E9EA0FED79E90000E156E000E1E
:10008800146E15BE06D0155041E1B40E145CD8B0FC
:100098003DD0000E176E000E166E17BE06D0175014
:1000A8002BE1040E165CD8B027D0210E1624D96E89
:1000B800000E1720DA6EDF50016E026A1450015CE0
:1000C8000250800A036E1550800A0358D8B008D031
:1000D800250E1624D96E000E1720DA6E000E07D0F2
:1000E800250E1624D96E000E1720DA6E010EDF6E6B
:1000F8009E90164A172AD1D7FF0ECF6EF50ECE6EF8
:100108009EA0FED79E90144A152ABBD78B727B0EF1
:10011800D76E300ED66E11C0F5FF10C0F8FF0FC0B5
:10012800F7FF0EC0F6FF0DC0F4FF0CC0F3FF0BC0C5
:10013800DAFF0AC0D9FF09C0E2FF08C0E1FF07C023
:10014800EAFF06C0E9FF05C0FBFF04C0FAFF2992D9
:060158001100FAEF08F0AF
:10100000002D2D2D2D2D2D2D2D2D2D2D2D2D48450A
:101010004C502D2D2D2D2D2D2D2D2D2D2D2D0D0A01
:10102000006C696768742073686F756C6420626512
:10103000206F6E00556E6B6E6F776E206B6579203A
:1010400025630D0A003F3A2068656C70206D656E5F
:10105000750D0A006F3A096F6B0D0A006F3A206B2D
:071060000D0A003E20000014
:10106800D2EC08F0000E80B0010E256E000E80B2A2
:10107800010E266E000E80B4010E276E000E80B69B
:10108800010E286E000E216E2D0E226E5A0E236E52
:10109800B40E246EA4AAFED7A49A32D01E0E196EDE
:1010A800100E1A6E96EC08F0010E196E100E1A6EDC
:1010B80096EC08F0450E196E100E1A6E96EC08F0B4
:1010C8005C0E196E100E1A6E96EC08F024D0540EB1
:1010D800196E100E1A6E96EC08F01DD0210E196EBE
:1010E800100E1A6E96EC08F08B7215D0340E196E2D
:1010F800100E1A6E74CF1BF01C6A96EC08F00BD019
:1011080074503F0AD8B4CAD7560AD8B4E7D7060AE3
:10111800D8B4DDD7EBD7630E196E100E1A6E96ECA5
:1011280008F0B8D71B0E1E6E000E1F6E2AD0250EB3
:101138002018D8B404D0205007EC09F022D0000EB3
:101148001D6E0ED01EC0D9FF1FC0DAFFDF50206E03
:10115800020E1E26000E1F22205007EC09F011D0A7
:1011680019C0F6FF1AC0F7FF194A1A2A0800F5CF66
:1011780020F02050000AD8B41200630AD8B4E2D78D
:10118800EBD719C0F6FF1AC0F7FF194A1A2A080048
:10119800F5CF20F02050D8B41200C9D7D38CD38A09
:1011A800D3889B8C728A7298729470967188680E34
:1011B800756E718E94929292929492969298000E75
:1011C800D56E000ED66ED596D594D582D590D59C81
:1011D800D58E7B0ED76E300ED66ECD90CD88CD8A4B
:1011E8009D90CD80F294F28AF28E120000EE21F0EA
:1011F800080EEE6AE806FDE129902992000EF86EC5
:10120800000134EF08F0186EA4A8FED718C073FFC9
:021218001200C2
:020000040020DA
:08000000FFFFFFFFFFFFFFFF00
:020000040030CA
:0E000000FF180000FF9500FF0FC00FE00F403B
:00000001FF
