:04000000B4EF00F069
:100008002982FACF04F0FBCF05F0E9CF06F0EACF5A
:1000180007F0E1CF08F0E2CF09F0D9CF0AF0DACF44
:100028000BF0F3CF0CF0F4CF0DF0F6CF0EF0F7CFC6
:100038000FF0F8CF10F0F5CF11F0F2948B728980A1
:10004800898289848986F80ECF6E300ECE6E9EA086
:10005800FED79E90000E136E000E126E13BE06D0D1
:10006800135047E1B40E125CD8B043D01D50016E56
:10007800026A1250015C0250800A036E1350800A13
:100088000358D8A089901E50016E026A1250015C74
:100098000250800A036E1350800A0358D8A0899230
:1000A8001F50016E026A1250015C0250800A036EF2
:1000B8001350800A0358D8A089942050016E026A10
:1000C8001250015C0250800A036E1350800A0358D4
:1000D800D8A089969E90FF0ECF6EFD0ECE6E9EA084
:1000E800FED79E90124A132A13BEC0D7135001E1BF
:1000F800B9D789908992899489968B728C0ED76E1C
:10010800A00ED66E252A2750255CD8A00BD0000E4D
:10011800256E2604D8A402D0000E01D0010E266E4A
:1001280014EC09F011C0F5FF10C0F8FF0FC0F7FF7D
:100138000EC0F6FF0DC0F4FF0CC0F3FF0BC0DAFFD2
:100148000AC0D9FF09C0E2FF08C0E1FF07C0EAFF03
:1001580006C0E9FF05C0FBFF04C0FAFF29921100A1
:04016800E3EF09F0C8
:10100000002D2D2D2D2D2D2D2D2D2D2D2D2D48450A
:101010004C502D2D2D2D2D2D2D2D2D2D2D2D0D0A01
:101020000048696768657374207370656564206142
:101030006C726561647920726561636865640D0A2C
:10104000004C6F7765737420737065656420616C04
:10105000726561647920726561636865640D0A0078
:1010600053706565642064656372656173656420AF
:1010700062792032350D0A00537065656420696E0F
:10108000637265617365642062792032350D0A00F0
:10109000776869636820646972656374696F6E3F1D
:1010A0000D0A006C696768742073686F756C642042
:1010B0006265206F6E00646972656374696F6E208B
:1010C00069732025630D0A00556E6B6E6F776E2075
:1010D0006B65792025630D0A003F3A2068656C70C6
:1010E000206D656E750D0A006F3A096F6B0D0A0071
:1010F0006F3A206B0D0A003E20000000B3EC09F0AF
:101100002D0E1D6E2D0E1E6E2D0E1F6E2D0E206EC1
:10111000A4AAFED7A49A6DD01E0E156E100E166EE0
:1011200077EC09F0010E156E100E166E77EC09F0D3
:10113000D90E156E100E166E77EC09F0F00E156EC6
:10114000100E166E77EC09F068D0E80E156E100ED2
:10115000166E77EC09F061D0A30E156E100E166EA8
:1011600077EC09F08B7259D0190E256409D0600E06
:10117000156E100E166E77EC09F0190E275E4DD025
:10118000410E156E100E166E77EC09F046D0FA0E71
:10119000256009D0780E156E100E166E77EC09F0EA
:1011A000190E27263AD0210E156E100E166E77EC0A
:1011B00009F033D0900E156E100E166E77EC09F014
:1011C000A4AAFED7A49A74CF28F0B60E156E100EFE
:1011D000166E28C017F0186A77EC09F01ED0C80EFA
:1011E000156E100E166E74CF17F0186A77EC09F0B2
:1011F00014D074503F0AD8B48FD76C0AD8B4C7D76C
:10120000300AD8B4D7D70A0AD8B4A6D7060AD8B4B1
:101210009CD71C0AD8B4A8D7E2D7F70E156E100ECB
:10122000166E77EC09F074D754D02650D8A409D0A4
:10123000640E1D6E1E0E1E6EB40E1F6E410E206ECD
:1012400012001E0E1D6E640E1E6E410E1F6EB40E39
:10125000206E12002650D8A409D0B40E1D6E000EC8
:101260001E6EB40E1F6E000E206E1200000E1D6E5C
:10127000B40E1E6E000E1F6EB40E206E12002650AD
:10128000D8A409D0B40E1D6E000E1E6EB40E1F6ED3
:10129000000E206E1200B40E1D6E000E1E6EB40EF7
:1012A0001F6E000E206E12002650D8A409D0B40E76
:1012B0001D6E000E1E6EB40E1F6E000E206E12000C
:1012C000B40E1D6E000E1E6EB40E1F6E000E206E4C
:1012D00012002850620AD8B4E7D7040AD8B4A5D7B8
:1012E0000A0AD8B4CCD71E0AD8A41200B3D7170E56
:1012F0001A6E000E1B6E2AD0250E1C18D8B404D00E
:101300001C50FCEC09F022D0000E196E0ED01AC051
:10131000D9FF1BC0DAFFDF501C6E020E1A26000E2A
:101320001B221C50FCEC09F011D015C0F6FF16C0B2
:10133000F7FF154A162A0800F5CF1CF01C50000ACA
:10134000D8B41200630AD8B4E2D7EBD715C0F6FFC1
:1013500016C0F7FF154A162A0800F5CF1CF01C50DE
:10136000D8B41200C9D7D38CD38AD3889B8C728A05
:101370007298729470967188680E756E718E9492E0
:1013800092909292929492960F0138810F01388335
:101390000F0138850F013887000ED56E000ED66E0E
:1013A000D596D594D582D590D59CD58E8C0ED76EFA
:1013B000A00ED66EF294F28ACD90CD88CD8A9D9003
:1013C000CD80F28E120000EE1DF00A0EEE6AE806E5
:1013D000FDE1040EF66E140EF76E000EF86E0900B5
:1013E000F5CF27F00900F5CF28F029902992000EBB
:1013F000F86E00017EEF08F0146EA4A8FED714C0AA
:0614000073FF12003266CA
:020000040020DA
:08000000FFFFFFFFFFFFFFFF00
:020000040030CA
:0E000000FF180000FF9500FF0FC00FE00F403B
:00000001FF
