:04000000A9EF00F074
:100008002882FACF04F0FBCF05F0E9CF06F0EACF5B
:1000180007F0E1CF08F0E2CF09F0D9CF0AF0DACF44
:100028000BF0F3CF0CF0F4CF0DF0F6CF0EF0F7CFC6
:100038000FF0F8CF10F0F5CF11F0F2948B728980A1
:10004800898289848986F80ECF6E300ECE6E9EA086
:10005800FED79E90000E136E000E126E13BE06D0D1
:1000680013504FE1B40E125CD8B04BD01D50016E46
:10007800026A1250015C0250800A036E1350800A13
:100088000358D8B002D0899001D089801E50016EE3
:10009800026A1250015C0250800A036E1350800AF3
:1000A8000358D8B002D0899201D089821F50016EBE
:1000B800026A1250015C0250800A036E1350800AD3
:1000C8000358D8B002D0899401D089842050016E99
:1000D800026A1250015C0250800A036E1350800AB3
:1000E8000358D8B002D0899601D089869E90FF0E19
:1000F800CF6EF50ECE6E9EA0FED79E90124A132AA2
:10010800ADD78B727B0ED76E300ED66E252A11C0F6
:10011800F5FF10C0F8FF0FC0F7FF0EC0F6FF0DC0C7
:10012800F4FF0CC0F3FF0BC0DAFF0AC0D9FF09C007
:10013800E2FF08C0E1FF07C0EAFF06C0E9FF05C00B
:0E014800FBFF04C0FAFF289211000AEF09F035
:10100000002D2D2D2D2D2D2D2D2D2D2D2D2D48450A
:101010004C502D2D2D2D2D2D2D2D2D2D2D2D0D0A01
:10102000006C696768742073686F756C6420626512
:10103000206F6E00556E6B6E6F776E206B6579203A
:1010400025630D0A003F3A2068656C70206D656E5F
:10105000750D0A006F3A096F6B0D0A006F3A206B2D
:071060000D0A003E20000014
:10106800C4EC08F02D0E1D6E2D0E1E6E2D0E1F6E7B
:101078002D0E206EA4AAFED7A49A32D01E0E156E8D
:10108800100E166E88EC08F0010E156E100E166E16
:1010980088EC08F0450E156E100E166E88EC08F0F8
:1010A8005C0E156E100E166E88EC08F024D0540EE7
:1010B800156E100E166E88EC08F01DD0210E156EF8
:1010C800100E166E88EC08F08B7215D0340E156E63
:1010D800100E166E74CF17F0186A88EC08F00BD053
:1010E80074503F0AD8B4CAD7560AD8B4E7D7060A04
:1010F800D8B4DDD7EBD7630E156E100E166E88ECDC
:1011080008F0ECEC08F0B6D7170E1A6E000E1B6E3E
:101118002AD0250E1C18D8B404D01C5023EC09F092
:1011280022D0000E196E0ED01AC0D9FF1BC0DAFFEC
:10113800DF501C6E020E1A26000E1B221C5023ECD8
:1011480009F011D015C0F6FF16C0F7FF154A162A88
:101158000800F5CF1CF01C50000AD8B41200630A2E
:10116800D8B4E2D7EBD715C0F6FF16C0F7FF154A7B
:10117800162A0800F5CF1CF01C50D8B41200C9D7A5
:10118800D38CD38AD3889B8C728A72987294709607
:101198007188680E756E718E949292909292929464
:1011A8009296000ED56E000ED66ED596D594D58241
:1011B800D590D59CD58E7B0ED76E300ED66ECD9041
:1011C800CD88CD8A9D90CD80F294F28AF28E12005D
:1011D80015D0000E276E2D0E1D6EB40E1E6E2D0E30
:1011E8001F6EB40E206E000E276E2D0E1D6EB40EEF
:1011F8001E6E2D0E1F6EB40E206E12002650660A4B
:10120800D8B4E7D7140AD8A41200EDD700EE1DF021
:10121800090EEE6AE806FDE1520EF66E120EF76E42
:10122800000EF86E0900F5CF26F00900F5CF27F07B
:1012380028902892000EF86E000134EF08F0146E22
:0C124800A4A8FED714C073FF12006601BA
:020000040020DA
:08000000FFFFFFFFFFFFFFFF00
:020000040030CA
:0E000000FF180000FF9500FF0FC00FE00F403B
:00000001FF
