:04000000B4EF00F069
:100008002982FACF04F0FBCF05F0E9CF06F0EACF5A
:1000180007F0E1CF08F0E2CF09F0D9CF0AF0DACF44
:100028000BF0F3CF0CF0F4CF0DF0F6CF0EF0F7CFC6
:100038000FF0F8CF10F0F5CF11F0F2948B728980A1
:10004800898289848986F80ECF6E300ECE6E9EA086
:10005800FED79E90000E136E000E126E13BE06D0D1
:10006800135047E1B40E125CD8B043D01D50016E56
:10007800026A1250015C0250800A036E1350800A13
:100088000358D8A089901E50016E026A1250015C74
:100098000250800A036E1350800A0358D8A0899230
:1000A8001F50016E026A1250015C0250800A036EF2
:1000B8001350800A0358D8A089942050016E026A10
:1000C8001250015C0250800A036E1350800A0358D4
:1000D800D8A089969E90FF0ECF6EFD0ECE6E9EA084
:1000E800FED79E90124A132A13BEC0D7135001E1BF
:1000F800B9D789908992899489968B728C0ED76E1C
:10010800A00ED66E252A2750255CD8A00BD0000E4D
:10011800256E2604D8A402D0000E01D0010E266E4A
:10012800B2EC08F011C0F5FF10C0F8FF0FC0F7FFE0
:100138000EC0F6FF0DC0F4FF0CC0F3FF0BC0DAFFD2
:100148000AC0D9FF09C0E2FF08C0E1FF07C0EAFF03
:1001580006C0E9FF05C0FBFF04C0FAFF29921100A1
:040168009CEF09F00F
:10100000002D2D2D2D2D2D2D2D2D2D2D2D2D48450A
:101010004C502D2D2D2D2D2D2D2D2D2D2D2D0D0A01
:10102000006C696768742073686F756C6420626512
:10103000206F6E00556E6B6E6F776E206B6579203A
:1010400025630D0A003F3A2068656C70206D656E5F
:10105000750D0A006F3A096F6B0D0A006F3A206B2D
:101060000D0A003E2000000069EC09F02D0E1D6EF7
:101070002D0E1E6E2D0E1F6E2D0E206E9EAAFED7FB
:101080009E9A49D01E0E156E100E166E2DEC09F0AC
:10109000010E156E100E166E2DEC09F0450E156E34
:1010A000100E166E2DEC09F05C0E156E100E166EFD
:1010B0002DEC09F050D0540E156E100E166E2DEC5E
:1010C00009F049D0210E156E100E166E2DEC09F0A8
:1010D0008B7241D0660E07D0720E05D06C0E03D015
:1010E000620E01D0680E286E36D0190E276433D0F8
:1010F000190E275E30D0FA0E27602DD0190E272644
:101100002AD0340E156E100E166EAECF17F0186A78
:101110002DEC09F020D0AE503F0AD8B4B3D76C0AFA
:10112000D8B4E9D7310AD8B4DBD7040AD8B4D2D7B7
:101130000E0AD8B4D7D7010AD8B4C4D7050AD8B490
:10114000CDD7030AD8B4B7D71D0AD8B4C5D7010A7A
:10115000D8B4CBD7D6D7630E156E100E166E2DEC05
:1011600009F08CD769D02650D8A409D0640E1D6E22
:101170001E0E1E6EB40E1F6E410E206E12001E0E4D
:101180001D6E640E1E6E410E1F6EB40E206E120098
:101190002650D8A409D0640E1D6E640E1E6E410E3A
:1011A0001F6EB40E206E12001E0E1D6E1E0E1E6EE1
:1011B000B40E1F6E410E206E12002650D8A409D026
:1011C0001E0E1D6E1E0E1E6E410E1F6EB40E206E84
:1011D0001200640E1D6E640E1E6EB40E1F6E410E64
:1011E000206E12002650D8A409D01E0E1D6E640E6B
:1011F0001E6E410E1F6EB40E206E1200640E1D6E28
:101200001E0E1E6EB40E1F6E410E206E1200265072
:10121000D8A409D05A0E1D6E5A0E1E6E5A0E1F6E9D
:101220005A0E206E12005A0E1D6E5A0E1E6E5A0E67
:101230001F6E5A0E206E12002850620AD8B4D2D700
:10124000040AD8B490D70E0AD8B4E1D7040AD8B4A7
:10125000B4D71E0AD8A412009BD7170E1A6E000E20
:101260001B6E2AD0250E1C18D8B404D01C50B5EC27
:1012700009F022D0000E196E0ED01AC0D9FF1BC083
:10128000DAFFDF501C6E020E1A26000E1B221C50C5
:10129000B5EC09F011D015C0F6FF16C0F7FF154ADE
:1012A000162A0800F5CF1CF01C50000AD8B4120012
:1012B000630AD8B4E2D7EBD715C0F6FF16C0F7FF24
:1012C000154A162A0800F5CF1CF01C50D8B412009D
:1012D000C9D7D38CD38AD3889B8C948E0F013A9F25
:1012E000AC8AAC98AC94B896AB88680EAF6EAB8EF7
:1012F000949292909292929492960F0138810F015B
:1013000038830F0138850F013887000ED56E000E27
:10131000D66ED596D594D582D590D59CD58E8C0E8B
:10132000D76EA00ED66EF294F28ACD90CD88CD8A7B
:101330009D90CD80F28E120000EE1DF00A0EEE6A36
:10134000E806FDE1760EF66E130EF76E000EF86EEF
:101350000900F5CF27F00900F5CF28F02990299250
:10136000000EF86E000134EF08F0146E9EA8FED750
:0813700014C0ADFF1200326849
:020000040020DA
:08000000FFFFFFFFFFFFFFFF00
:020000040030CA
:0E000000FF180000FF9500FF0FC00FE00F403B
:00000001FF
