:04000000B7EF00F066
:100008002882FACF04F0FBCF05F0E9CF06F0EACF5B
:1000180007F0E1CF08F0E2CF09F0D9CF0AF0DACF44
:100028000BF0F3CF0CF0F4CF0DF0F6CF0EF0F7CFC6
:100038000FF0F8CF10F0F5CF11F0F2948B728980A1
:10004800898289848986F80ECF6E300ECE6E9EA086
:10005800FED79E90000E136E000E126E13BE06D0D1
:1000680013504FE1B40E125CD8B04BD01D50016E46
:10007800026A1250015C0250800A036E1350800A13
:100088000358D8B002D0899001D089801E50016EE3
:10009800026A1250015C0250800A036E1350800AF3
:1000A8000358D8B002D0899201D089821F50016EBE
:1000B800026A1250015C0250800A036E1350800AD3
:1000C8000358D8B002D0899401D089842050016E99
:1000D800026A1250015C0250800A036E1350800AB3
:1000E8000358D8B002D0899601D089869E90FF0E19
:1000F800CF6EF50ECE6E9EA0FED79E90124A132AA2
:10010800ADD78B728C0ED76EA00ED66E252A630ED5
:1001180025640BD0000E256E2604D8A402D0000E4C
:1001280001D0010E266EB1EC08F011C0F5FF10C029
:10013800F8FF0FC0F7FF0EC0F6FF0DC0F4FF0CC0AC
:10014800F3FF0BC0DAFF0AC0D9FF09C0E2FF08C0FD
:10015800E1FF07C0EAFF06C0E9FF05C0FBFF04C0D6
:0A016800FAFF2892110072EF09F06F
:10100000002D2D2D2D2D2D2D2D2D2D2D2D2D48450A
:101010004C502D2D2D2D2D2D2D2D2D2D2D2D0D0A01
:1010200000646972656374696F6E2069732025635B
:101030002F722F6E00776869636820646972656338
:1010400074696F6E3F0D0A006C696768742073687D
:101050006F756C64206265206F6E00556E6B6E6FED
:10106000776E206B65792025630D0A003F3A206872
:10107000656C70206D656E750D0A006F3A096F6BB7
:101080000D0A006F3A206B0D0A003E2000004AEC6A
:1010900009F02D0E1D6E2D0E1E6E2D0E1F6E2D0EC7
:1010A000206EA4AAFED7A49A47D01E0E156E100E6D
:1010B000166E0EEC09F0010E156E100E166E0EEC8B
:1010C00009F06C0E156E100E166E0EEC09F0830E04
:1010D000156E100E166E0EEC09F03CD07B0E156EE0
:1010E000100E166E0EEC09F035D0480E156E100E6F
:1010F000166E0EEC09F08B722DD0350E156E100E9B
:10110000166E0EEC09F0A4AAFED7A49A74CF27F0AD
:10111000210E156E100E166E27C017F0186A0EEC11
:1011200009F018D05B0E156E100E166E74CF17F006
:10113000186A0EEC09F00ED074503F0AD8B4B5D737
:101140005C0AD8B4DAD70A0AD8B4CFD7060AD8B41A
:10115000C5D7E8D78A0E156E100E166E0EEC09F084
:10116000A0D74ED02650D8A408D0B40E1D6EB40E11
:101170001E6EB40E1F6EB40E07D0000E1D6E000E54
:101180001E6E000E1F6E000E206E2650D8A408D0D2
:10119000B40E1D6E2D0E1E6EB40E1F6E2D0E07D0DA
:1011A0002D0E1D6EB40E1E6E2D0E1F6EB40E206E13
:1011B0002650D8A408D0B40E1D6E2D0E1E6EB40E8F
:1011C0001F6E2D0E07D02D0E1D6EB40E1E6E2D0E31
:1011D0001F6EB40E206E2650D8A409D0B40E1D6E1A
:1011E0002D0E1E6EB40E1F6E2D0E206E12002D0ED3
:1011F0001D6EB40E1E6E2D0E1F6EB40E206E1200EC
:101200002750620AD8B4E7D7040AD8B4ABD70A0A81
:10121000D8B4CED71E0AD8A41200B7D7170E1A6EAC
:10122000000E1B6E2AD0250E1C18D8B404D01C50FA
:1012300088EC09F022D0000E196E0ED01AC0D9FF2A
:101240001BC0DAFFDF501C6E020E1A26000E1B2296
:101250001C5088EC09F011D015C0F6FF16C0F7FF3E
:10126000154A162A0800F5CF1CF01C50000AD8B405
:101270001200630AD8B4E2D7EBD715C0F6FF16C048
:10128000F7FF154A162A0800F5CF1CF01C50D8B4F9
:101290001200C9D7D38CD38AD3889B8C728A729858
:1012A000729470967188680E756E718E9492929099
:1012B000929292949296000ED56E000ED66ED596AE
:1012C000D594D582D590D59CD58E8C0ED76EA00E98
:1012D000D66ECD90CD88CD8A9D90CD80F294F28A45
:1012E000F28E120000EE1DF00A0EEE6AE806FDE135
:1012F0001C0EF66E130EF76E000EF86E0900F5CF99
:1013000027F028902892000EF86E000147EF08F0B1
:0E131000146EA4A8FED714C073FF120066006E
:020000040020DA
:08000000FFFFFFFFFFFFFFFF00
:020000040030CA
:0E000000FF180000FF9500FF0FC00FE00F403B
:00000001FF
