:04000000A8EF00F075
:100008002782FACF04F0FBCF05F0E9CF06F0EACF5C
:1000180007F0E1CF08F0E2CF09F0D9CF0AF0DACF44
:100028000BF0F3CF0CF0F4CF0DF0F6CF0EF0F7CFC6
:100038000FF0F8CF10F0F5CF11F0F2948B728980A1
:10004800898289848986F80ECF6E300ECE6E9EA086
:10005800FED79E90000E136E000E126E13BE06D0D1
:1000680013504FE1B40E125CD8B04BD01F50016E44
:10007800026A1250015C0250800A036E1350800A13
:100088000358D8B002D0899001D089802050016EE1
:10009800026A1250015C0250800A036E1350800AF3
:1000A8000358D8B002D0899201D089822150016EBC
:1000B800026A1250015C0250800A036E1350800AD3
:1000C8000358D8B002D0899401D089842250016E97
:1000D800026A1250015C0250800A036E1350800AB3
:1000E8000358D8B002D0899601D089869E90FF0E19
:1000F800CF6EF50ECE6E9EA0FED79E90124A132AA2
:10010800ADD78B727B0ED76E300ED66E11C0F5FF51
:1001180010C0F8FF0FC0F7FF0EC0F6FF0DC0F4FFC8
:100128000CC0F3FF0BC0DAFF0AC0D9FF09C0E2FF19
:1001380008C0E1FF07C0EAFF06C0E9FF05C0FBFFF2
:0C01480004C0FAFF279211000DEF09F02F
:10100000002D2D2D2D2D2D2D2D2D2D2D2D2D48450A
:101010004C502D2D2D2D2D2D2D2D2D2D2D2D0D0A01
:10102000006C696768742073686F756C6420626512
:10103000206F6E00556E6B6E6F776E206B6579203A
:1010400025630D0A003F3A2068656C70206D656E5F
:10105000750D0A006F3A096F6B0D0A006F3A206B2D
:071060000D0A003E20000014
:10106800660E1E6E010E1D6EE5EC08F02D0E1F6E4D
:101078002D0E206E2D0E57D02D0E226EA4AAFED74F
:10108800A49A32D01E0E156E100E166EA9EC08F03A
:10109800010E156E100E166EA9EC08F0450E156EB1
:1010A800100E166EA9EC08F05C0E156E100E166E7A
:1010B800A9EC08F024D0540E156E100E166EA9EC8B
:1010C80008F01DD0210E156E100E166EA9EC08F052
:1010D8008B7215D0340E156E100E166E74CF17F075
:1010E800186AA9EC08F00BD074503F0AD8B4CAD7D4
:1010F800560AD8B4E7D7060AD8B4DDD7EBD7630EBB
:10110800156E100E166EA9EC08F017D0000E1D6EA5
:101118002D0E1F6EB40E206E2D0E216EB40E226E93
:10112800000E1D6E02D0216EA7D72D0E1F6EB40EB5
:10113800206E2D0E216EB40EA0D71E50660AD8B4AC
:10114800E5D7140AD8B4ECD799D7170E1A6E000E43
:101158001B6E2AD0250E1C18D8B404D01C501AECCB
:1011680009F022D0000E196E0ED01AC0D9FF1BC08C
:10117800DAFFDF501C6E020E1A26000E1B221C50CE
:101188001AEC09F011D015C0F6FF16C0F7FF154A82
:10119800162A0800F5CF1CF01C50000AD8B412001B
:1011A800630AD8B4E2D7EBD715C0F6FF16C0F7FF2D
:1011B800154A162A0800F5CF1CF01C50D8B41200A6
:1011C800C9D7D38CD38AD3889B8C728A729872942D
:1011D80070967188680E756E718E94929290929244
:1011E80092949296000ED56E000ED66ED596D59432
:1011F800D582D590D59CD58E7B0ED76E300ED66E07
:10120800CD90CD88CD8A9D90CD80F294F28AF28ED1
:10121800120000EE1FF0080EEE6AE806FDE12790C6
:101228002792000EF86E000134EF08F0146EA4A89F
:08123800FED714C073FF120081
:020000040020DA
:08000000FFFFFFFFFFFFFFFF00
:020000040030CA
:0E000000FF180000FF9500FF0FC00FE00F403B
:00000001FF
